:102000000080002021750000E572000009750000C5
:1020100000000000000000000000000000000000C0
:102020000000000000000000000000000975000032
:102030000000000000000000097500007575000038
:10204000097500007D21000009750000B936000007
:10205000A972000009750000755100000D7500009F
:10206000097500005D550000097500000975000044
:10207000414D000009750000097500000975000058
:102080000975000009750000097500000975000058
:102090000000000009750000097500008536000089
:1020A0000975000009750000097500000975000038
:1020B0000000000010B5064C2378002B07D1054B1B
:1020C000002B02D0044800E000BF0123237010BDA4
:1020D000D00200200000000054FD0000044B10B5A9
:1020E000002B03D00349044800E000BF10BDC046E8
:1020F00000000000D402002054FD00000022034B29
:102100001A60034B01321A707047C046F804002071
:10211000D6040020114A136801331360012B04DD3B
:102120000023136001220E4B1A700E4A1368012B14
:1021300011D113600C4A13700C4A11680A290AD194
:1021400013600B4A13700B4A11680A2903D10A491C
:102150000B701360704713680133FAE7F002002038
:10216000D4040020EC020020CD040020F402002062
:10217000CC040020F8020020CE04002080230A4A6C
:10218000DB00916819439160116819431160074A97
:1021900011680B43136001239621054A1370054A09
:1021A0001160054A1370704700080040080800409D
:1021B000D004002058040020D3040020F8B50C00FF
:1021C000012826D0022823D110250C260121300019
:1021D00005F096FD0121280005F092FD1E4F002C10
:1021E00029D08023DB009C4216DA1C4B9C4215DB75
:1021F000002C14DD0121300005F0B2FD0021280083
:1022000005F0AEFD2800164B191B05F093FC3C6051
:10221000F8BD0B250A26D9E7114CEBE71C0000217D
:10222000300005F09DFD0121280005F099FD0C4BC3
:102230003000191BE9E73000012105F061FD28009D
:10224000012105F05DFD2100300005F089FD210030
:10225000280005F085FDDAE7C804002001FCFFFF37
:10226000FF03000070B50121092005F049FD01219F
:10227000092005F075FD0021092005F041FD012030
:1022800005F0BCF9152005F0DDFB06F033FF011C5D
:1022900006F0E8F808F052FD274A284B07F0D6FE72
:1022A00008F094FDE621890506F042FC244B254AFE
:1022B00018601368244C990001330851092B39DC4C
:1022C000002500201360AB00E158013506F0CAF884
:1022D0000A2DF8D11D4906F061FA1D4E011C051C9E
:1022E000306806F03FFD0021041C06F0A7F8002826
:1022F00002D180231B06E418201C08F01FFD154A9C
:10230000154B06F06BF8002802D00122134B1A700F
:102310003560281C08F012FD114A124B06F04AF8ED
:10232000002806D0104B1B78002B02D101220F4B46
:102330001A7070BD0023C3E76666666666660A406B
:102340004804002010030020040000200000204169
:10235000300000209A9999999999A93FD5040020B5
:10236000EC51B81E85EB0B40D0040020D3040020B4
:102370000906D2B2090C1143FF2210B50004064C25
:10238000120402400A432000002101F02EF8200030
:1023900000F0FCFE10BDC046E0040020F8B5C74CBC
:1023A00023680A2B01DD002323602368002B01DA58
:1023B00000232360C24D22682B689A4207D0002375
:1023C000C04A1360C04A13600122C04B1A702068D3
:1023D0000A282ED805F04EFE0B0030006B009C0042
:1023E000CB0007013E019801CD0108023E02B84B27
:1023F0001B68002B03D000210120FFF7DFFE002126
:102400000220FFF7DBFE0C23B24EB3483268534381
:10241000C1188A6818584968FFF7AAFF3368013362
:10242000922B07D82A68336023689A4201D0236828
:102430002B60F8BD0023F5E72A682368A74FA84E54
:102440009A4210D0002114220800FFF791FFFF21CB
:102450000120236849002B6038603060FFF7AEFE32
:10246000FF21490037E03B68012B0DD9FF21954C36
:1024700001202368490001332360FFF79FFE236892
:10248000002B01D0002323603368012BD1D9FF2119
:102490008D4C49002368013323600220FFF78EFE34
:1024A0002368002BC5D00022874B1A60C1E72A6839
:1024B00023688A4F8A4E9A4211D0002132220800A6
:1024C000FFF756FF0120236886492B603860306093
:1024D000FFF774FE83490220FFF770FEA9E73B680F
:1024E000012B0CD9774C012023687E4901332360EE
:1024F000FFF764FE2368002B01D0002323603368BC
:10250000012B96D9704C7749236801332360C4E7C7
:102510002A682368714F724E9A420ED0002114220D
:102520000800FFF725FF012023686F492B60386002
:102530003060FFF743FE6D49CDE73B68012B0CD9B6
:10254000604C01202368684901332360FFF736FEA1
:102550002368002B01D0002323603368012B00D8AF
:1025600067E7594C614923680133236095E72A687E
:1025700023685A4F5A4E9A4210D000211422080064
:10258000FFF7F6FE2368FA212B600A234900012099
:102590003B603360FFF712FEFA2162E73B68012BD4
:1025A0000ED9484C012023685A1C2260504A9B00D7
:1025B0009958FFF703FE2368092B01D900232360F4
:1025C0003368012B00D834E73F4C23685A1C226043
:1025D000484A9B0099580220FFF7F0FD2368092B19
:1025E00000D960E725E72A6823683C4F3C4E9A42B1
:1025F0000BD0002114220800FFF7BAFE23682B60DD
:1026000008233B600021336036E03B68012B0ED984
:102610002C4C012023685A1C2260374A9B00995891
:10262000FFF7CCFD2368072B01D900232360336813
:10263000012B00D8FDE6244C23685A1C22602F4A47
:102640009B0099580220FFF7B9FD2368072B00D99A
:1026500029E7EEE62A682368204F214E9A4210D0DF
:10266000962200211000FFF783FE2368CD212B6006
:102670000A2389003B6033600120FFF79FFD0021A2
:1026800029E73B68012B0ED90E4C012023685A1C08
:1026900022601B4A9B009958FFF790FD2368092B85
:1026A00001D9002323603368012B00D8C1E6064C12
:1026B00023685A1C22609B00124A8BE7DC0400202E
:1026C0002C000020080300200C030020D50400206B
:1026D000C8040020040300200CDF0000FC020020DE
:1026E0000003002002030000FF03000001FCFFFFC5
:1026F000F0E50000F0E5000018E6000018E6000034
:1027000038E6000004E700002A6823686D4F6E4E2B
:102710009A4211D0002114220800FFF729FE2368F5
:10272000FF212B60082389003B6033600120FFF705
:1027300045FDFF218900CEE63B68012B0ED9634C95
:10274000012023685A1C2260614A9B009958FFF7B8
:1027500035FD2368072B01D9002323603368012B43
:1027600000D866E65B4C23685A1C22609B005A4ADC
:1027700067E72A682368534F534E9A420FD00021CF
:1027800014220800FFF7F4FD2368C8212B601923E9
:1027900001203B603360FFF711FDC8219BE63B68D9
:1027A000012B0ED9494C012023685A1C22604B4A48
:1027B0009B009958FFF702FD2368182B01D90023CD
:1027C00023603368012B00D833E6424C0220236893
:1027D0005A1C2260424A9B009958FFF7EFFC23687D
:1027E000182B00D95FE624E62A682368354F364E59
:1027F0009A420AD0002114220800FFF7B9FD23688D
:102800002B6008233B60DB18FCE63B68012B0ED9EC
:102810002E4C012023685A1C2260324A9B00995892
:10282000FFF7CCFC2368072B01D900232360336812
:10283000012B00D8FDE5274C022023685A1C22609A
:10284000294A9B009958FFF7B9FC23680F2B00D940
:1028500029E6EEE52A6823681A4F1B4E9A420BD0F0
:10286000002114220800FFF783FD236800212B605C
:102870001F233B60336059E73B68012B0ED9134C93
:10288000012023685A1C2260184A9B009958FFF7C0
:1028900095FC23681E2B01D9002323603368012B8C
:1028A00000D8C6E50B4C022023685A1C2260104A4F
:1028B0009B009958FFF782FC23681E2B00D9F2E594
:1028C000B7E5C046FC0200200003002008030020FA
:1028D00060E600000C03002060E6000080E60000D7
:1028E00080E60000E4E600002CE700006CE7000052
:1028F000E8E7000010B5064C200000F0ACFD200019
:1029000000F044FC0023034A1370034A136010BD17
:10291000E0040020D1040020D804002070B5084D48
:10292000040000212800074A00F05FFD280000F0A5
:102930002DFC0122044B1A70044B1C6070BDC04674
:10294000E004002096960000D1040020D804002066
:1029500070B50221092005F0D3F90221052005F008
:10296000CFF9A0235B00013BFDD1092005F024FA3B
:10297000444260414400052005F01EFA434258419C
:1029800020432C4C2C492060226808682B4B824243
:102990001DD000221A602A4B1A602368934206D188
:1029A000284B1A68002A00D0226000221A60206892
:1029B000254B264D00280DD11A68287001321A6067
:1029C00023680B602978002909D0206870BD1A6837
:1029D0000132EBE700221A601D4B1A60F0E7226813
:1029E000174B022A05D0032A18D0012A0FD01960EC
:1029F000EBE71A68032A03D1164801680131016028
:102A000001321A60132AE0D900221A60DDE71A6841
:102A1000032AF5D10F4801680139F0E71A680A2A3C
:102A200006D132201960FFF779FF01232B70CCE724
:102A30000132EAE750040020540400204C04002036
:102A4000200300201C030020180300201403002092
:102A5000F8040020DC04002030B5184D85B02800B3
:102A6000174904F097FC174C17492200280005F07D
:102A7000EFFA164800F020FD154D522308220121DF
:102A8000280000F09BFC22002800124905F0E0FA23
:102A9000114B124D0293124B2022019301235B42F2
:102AA000009380210F4B280000F030FF2200280007
:102AB0000D4905F0CDFA05B030BDC0463C040020FC
:102AC0001AF8000000000020057300002403002015
:102AD000E0040020CD300000A08601005C0400204E
:102AE000801A0600100500206D390000F0B58DB089
:102AF000042843D805F0B4FA033745537600874CD1
:102B0000200001F0F7FA200001F033F80121200045
:102B100001F07CFF00232361814B82496361200027
:102B200002F096FD80235B0323610221200001F067
:102B30006DFF7D4909A804F02DFC7C4906A804F02E
:102B400029FC06A909A804F0A8FC0100200002F055
:102B50006BFD06A804F0D6FB09A804F0D3FB200007
:102B600001F0C8FA0AE06D4C200001F002F82000E4
:102B700001F0C0FAAE21200000F0CFFF01200DB01F
:102B8000F0BD0124654D230002213C222800009461
:102B900001F000F8664BAF2128001C70ECE75F4C99
:102BA0000125200000F0E5FF00220C231100200089
:102BB000009301951C3301F038FC0623032220000A
:102BC00000932821013B019501F02FFC20000221F8
:102BD00001F01CFF88235B0320005649236102F0AB
:102BE0002AFDBCE7524B1B78002B68D04B4C0126CA
:102BF000200000F0BEFF00220C23110020000093F3
:102C000001961C3301F011FC062303222821200029
:102C100000930196013B01F008FC8121464BC90558
:102C20001F68381C05F014FC051E4CD00C230196BF
:102C300000931C3300221100200001F0C2FB3F4B27
:102C400001212000236101F0E1FE3B4B02221968C3
:102C500006A804F0EFFB06A909A804F0BEFB38495A
:102C600009A804F027FC0100200002F0DDFC09A8FF
:102C700004F048FB06A804F045FB0221200001F007
:102C8000C5FE88235B032F49236109A804F082FB5A
:102C90002D4B0A22196806A804F0BAFB06A909A858
:102CA00004F0FBFB0100200002F0BEFC06A804F0CB
:102CB00029FB09A804F026FB200001F01BFA0022E2
:102CC0001B4B1A705AE7381C08F038F81F4A204B83
:102CD0000490059105F082FB0390002806D00C2398
:102CE0000196009312332A002900A5E7194A1A4BCE
:102CF0000498059905F072FB051E04D00C2301967B
:102D00000093083396E71549381C05F0A1FB00280D
:102D100095D00C2301960093023BE4E75C0400206D
:102D200001000100E0DE0000ECDE0000F1DE00004A
:102D3000D5040020F6DE0000300000203C00020038
:102D400000DF000005DF00002C00002066666666DC
:102D500066660E40CDCCCCCCCCCC0C4000006040A4
:102D600037B502213E4B5A6B8A435A63DA68120523
:102D7000FCD502243B4A0D205A635A6B22435A6306
:102D800080225968D2001143596037490C60996814
:102D90000A439A60012104F0B3FF01210F2004F0DF
:102DA000AFFF00210F2004F0DBFF0021122004F010
:102DB000A7FF0121112004F0A3FF0121112004F03D
:102DC000CFFFC82004F01AFC01210A2004F098FF6C
:102DD00001210B2004F094FF01210C2004F090FF4E
:102DE0000121102004F08CFF2100092004F088FF4D
:102DF0002100052004F084FF00210120FFF7DEF907
:102E000000212000FFF7DAF90A2004F0D1FD0C20A0
:102E100004F0A8FD154D280000F066F9280000F028
:102E20001AFB2800012500F0B1F92B0021003C22FB
:102E300000950F4800F0AEFE0020FFF757FEFA2085
:102E4000C00004F0DBFB0A210A4A0B4800F087FBB4
:102E50000A4B186062B60A4B1D700A4B1D7037BDD5
:102E6000000800401400300000E100E0E004002011
:102E70005C0400201521000024030020FC04002035
:102E8000D2040020D504002070B500210120FFF7F6
:102E900095F900210220FFF791F90121112004F09A
:102EA0002FFF0021112004F05BFF0021112004F00E
:102EB00027FF01210D2004F023FF00210D2004F045
:102EC0004FFFFFF717FD0221092004F019FF02212F
:102ED000052004F015FF0120FFF708FE012004F093
:102EE0008DFB00210F2004F00BFF074D074C2A003B
:102EF00020000323092100F099FB2A000323052168
:102F0000200000F093FB70BDFD20000004050020B0
:102F1000802210B50224104BD200596811201143B1
:102F200059600E490C6099680A439A60012104F0C7
:102F3000E7FE0121112004F013FF01210F2004F00E
:102F4000DFFE00210F2004F00BFFC82004F056FB29
:102F50002000FFF7CBFD10BD0008004000E100E0BD
:102F600070B5484800F0C8FA474B1A78002A03D0D9
:102F700000221A70FFF7CCFF444C2378002B10D0AE
:102F8000434B1A78D3B2002A0BD1424A23701370F4
:102F9000414A1370414A1370FFF776FF404800F032
:102FA00041FB404B404D1B78002B04D02B68002B7D
:102FB00051D1FFF79FFC3D4B2A681B68134302D099
:102FC00000223B4B1A603B4B1A78002A07D0314A4B
:102FD0001278D1B2002A02D11970FFF7B9FC364B32
:102FE0001A78002A17D000222A4D1A702B78DAB2EC
:102FF000002B33D0294D2978002903D10A007820ED
:10300000FFF7B6F901222D492A700B68013B0B60CE
:10301000002B00D122702A4B1A78002A0ED00022F1
:103020001A701C4B1B78934202D10420FFF75EFDFF
:10303000244B1B68002B01D1FFF714F9224B1A789F
:10304000002A07D000221A70194A1368052B16D1DE
:10305000043B237070BD013B2B60ACE70E4B19782D
:10306000002909D003201A70FFF740FD0123C82270
:103070002B70124B1A60CEE7FFF790F9CBE70133C4
:103080001360E7E724030020D6040020D2040020C8
:10309000CF040020D0040020D3040020000500202D
:1030A00004050020D1040020D80400202C000020BA
:1030B000F8040020D4040020CD040020580400208F
:1030C000CC04002050040020CE04002010B50400E1
:1030D000C06807F095FF0623E05E002802DB0021B0
:1030E00004F00EFE200010BD10B504000623C05EE3
:1030F000002807DB012104F003FE00210623E05E27
:1031000004F02EFE0123637010BD70B50500C06889
:103110000E0007F075FF2B7CEC7CE41A631E9C41CB
:1031200003347443A4B22000AC8007F05FFFE86072
:10313000002805D02200002107F088FF6E8070BDB6
:10314000A8806880FBE70322F8B58B110D118E1063
:103150001640134015400A40467482740026FF2230
:103160008A427641C268C47C077CC37405740670C9
:10317000002A0AD0E21B5B1B51424A4159424B4193
:103180009A4202D04188FFF7C0FFF8BDF8B5C36886
:103190000400002B00D1EFE096256D0004F0FEF94D
:1031A0006369984201D26061F8E7C01AA842F5D37A
:1031B00072B60622A35E1822012053436F4FA688E1
:1031C000FA185268DB5D9040E268DB0115789619C9
:1031D000511C6B4A9F186B4A9B182278002A00D01A
:1031E00058E0803294463860C046C046C046C0466B
:1031F000C046C046C046C046C046C046C0462A4239
:1032000000D192E0C046C046C046C046C046C04657
:10321000C046C046C046C046C046C046C046C0467E
:10322000C046C046C046C046C046C046C046C0466E
:10323000C046C046C046C046C0461860C046C046EC
:10324000C046C046C046C046C046C046C046C0464E
:10325000C046C046C046C046C046C046C046C0463E
:10326000C046C046C046C046C046C046C046C0462E
:10327000C046C046C046C046C046C046521000D1F7
:1032800070E0D2B2C046C046C046C046C046C04646
:10329000C046A8E7802294463860C046C046C04673
:1032A000C046C046C046C046C0462A4221D0C0469D
:1032B000C046C046C046C046C046C046C046C046DE
:1032C000C046C046C046C046C046C046C046C046CE
:1032D000C046C046C0461860521020D0D2B2C04688
:1032E000C046C046C046C046C046C046C046C046AE
:1032F000D2E71860C046C046C046C046C046C04679
:10330000C046C046C046C046C046C046C046C0468D
:10331000C046C046C046C046C046C046DCE7B142D3
:1033200026D20D7862460131B6E71860C046C04625
:10333000C046C046C046C046C046C046C046C0465D
:10334000C046C046C046C046C046C046C046C0464D
:10335000C046C046C046C046C046C046C046C0463D
:10336000C0466BE7B14203D20D78624601313AE7BD
:1033700062B604F013F96061F8BDC04610F40000B5
:10338000184400411444004170B5437804000D0016
:10339000002B06D00623C05E002802DB002104F0CB
:1033A000AFFC6378E580002B07D00121280004F0F2
:1033B000A7FC0021280004F0D3FC70BD70B5040008
:1033C00000200E001500190060702072E06060613E
:1033D0002000FFF7B8FE31002000FFF796FE29001D
:1033E0002000FFF7D1FF200070BD4388F7B58B4266
:1033F00019D9037A150C140A002B15D1E4B2EDB2D9
:103400000194D6B2B446047CC67CC768B44217D1D6
:10341000032359437F18037C019AFD54437CFA54DB
:103420006246837CFA54F7BDFF26344035405C4346
:1034300016405D435E43240A2D0A0194360AE1E7F3
:1034400089007F18120E002B02D1D3B2BB55E2E7E0
:1034500053431B0AFAE710B500218288C06807F0C1
:10346000F5FD10BD0023037070474369426870B5D5
:10347000CB1A04000D00934209D30023C356012B3D
:103480000ED0022B0FD0A36965610133A361A3683D
:10349000002B04DBA269934201DC0023237070BD82
:1034A00003699847EFE7417B4B424B41D9B24173E7
:1034B000007B04F055FCE6E770B50600040005004B
:1034C0001936FF3628001C35FFF7CCFFAE42F9D184
:1034D000200070BD70B506000D0004001936FF36DF
:1034E0000023E356002B03D029002000FFF7BDFF87
:1034F0001C34B442F4D170BD10B5040004F048F897
:1035000001002000FFF7E6FF10BD020000231C2190
:1035100010B50C005C43145758B2002C04D0013392
:103520000A2BF6D10120404210BDF7B504000F0070
:103530001E000192FFF7E9FF0500431C0DD01C207F
:103540000123684324182370019B67602361A660F0
:1035500004F01EF800236061A3612800FEBD012372
:1035600010B55B42FFF7E1FF10BD0000114B12499F
:103570005A880A405A805A78D209FCD10F4A5A8098
:103580005A78D209FCD10E4A5A605A7852B2002AAF
:10359000FBDB8022596892030A435A605A7852B280
:1035A000002AFBDBC023074A9B0051680B43536092
:1035B0007047C046000C0040FFBFFFFF05460000FB
:1035C000060301000040004170B5124802F0A0FB64
:1035D000114C002819D0200002F0CCFD002002225E
:1035E0000E4B0F4D19689143196004212E69314328
:1035F0002961BFF34F8F30BF19680A431A60002852
:1036000002D0200002F05AFE70BD200002F092FEAF
:103610000120E4E7F00C00200C0D002010E000E099
:1036200000ED00E010B5FFF7CFFF10BD70B505004D
:10363000140008001A002A290AD9FF2907D10021FD
:10364000280000F099F82100280000F043F870BD30
:10365000182116254143094B5B185D576B1CF6D0AA
:10366000102DF4D0210003F05DFDFFF77FFF012353
:10367000AB40034A51690B435361E8E710F4000083
:10368000001800400423044A10B5117E0B43137642
:10369000024B5B68984710BD0040004204050020C3
:1036A00010B5024800F004F810BDC0460405002023
:1036B0000023037070470000044B10B51B68002BFB
:1036C00000D098470122024B1A7210BD0C05002051
:1036D00000140040014B19607047C0460C050020E3
:1036E000094B0A4A9A605A7852B2002AFBDB084A10
:1036F0005A605A7852B2002AFBDB064A5A805A783E
:10370000D209FCD17047C046000C00400204000002
:1037100002051100044200000221044B1A888A436A
:103720001A809A7AD209FCD17047C0460014004032
:103730000222044B19880A431A809A7AD209FCD1D2
:103740007047C046001400400122044B19880A4308
:103750001A809A7AD209FCD17047C0460014004002
:103760000121044B1A888A431A809A7AD209FCD123
:103770007047C046001400402023F7B500272A4AAE
:103780000E00916905000B439361284B284A294C90
:103790009A82BE420BD1284B37001A7870231A4206
:1037A00005D023881B0702D5012723690193280030
:1037B000FFF796FF2800FFF7AFFF2800FFF7C4FFD1
:1037C00063881E4A134063801D4B2380A37ADB0964
:1037D000FCD1C0211B4A08331360890053581B02D7
:1037E0001B0A53500123E27913430722E371237F1D
:1037F00093432377A37ADB09FCD12800FFF798FFD6
:103800002800FFF7ADFF002E0BD1002F09D0019B40
:10381000002B06D02361A37ADB09FCD101332B7086
:10382000F7BD8423DB03F5E70004004000080040F7
:10383000CE0600000014004038040040FFBFFFFF28
:10384000080A000000E100E0002070477047F0B572
:1038500000294ADB0C25445F8C4246DD002A44DB0C
:103860000E25445F944240DD847E022C1FD0032C41
:1038700026D0012C04D1D2430489A4180A0021B215
:10388000012B23D0022B31D0002B2ED10724D317AC
:1038900023400826855F9B18DB106B4359180123D2
:1038A000224093401A00C06A435C93431CE00489A1
:1038B000013C611AD443428909B2121912B2DFE7FE
:1038C0004489013C641A110022B2D9E70725D417B4
:1038D0002C40A4182A4093400827C65FE410744384
:1038E000C06A6118425C13434354F0BD0724D317E8
:1038F00023400826855F9B18DB106B435918012372
:1039000022409340C06A425C5340EDE770B5002608
:103910001D0004AB04009E5700F01AFE0022104B5D
:10392000626208332360954200D10E4D2300FF21CF
:103930003333A562E26219702100012336315B4204
:10394000A3860B70230037331E70059B2000A365F0
:10395000069BE365044B6366230068331A8070BDE1
:1039600004ED00001005002000093D0010B5040022
:10397000C06A002801D007F043FB200010BDF8B555
:103980000400806A0D00002812D02300303319781B
:1039900001F0C8F8A06A002103681B689847A06A74
:1039A000290003681B689847A06A01F031F9F8BD47
:1039B000226C216D1368606A8B431360002803D06A
:1039C000290001F063FAF2E708208026E36BA26B7E
:1039D000A16C17682E420ED0394311601968E76C4C
:1039E0000138394319601968E76C7608B9431960E2
:1039F0000028EDD1DBE78F431760EFE770B50400D7
:103A0000806A0D00002810D0A16D01F07DF829001A
:103A10004D1EA9412000A631FFF7B1FFA06A002882
:103A200010D0E16D01F070F870BD606A002803D01D
:103A3000616EA26E01F0FAF9626C616D13688B43DE
:103A40001360E4E7626C616D1368606A0B43136096
:103A50000028E9D001F006FAE6E7F7B50400806A2D
:103A60008B180D000193002828D0270030373978B3
:103A700001F058F8A06A0021036801261B689847E6
:103A8000019BA06A9D4216D0FE2E0BD901F0C0F812
:103A90003978A06A01F046F8A06A0021036801267F
:103AA0001B689847A06A2978036801361B68984705
:103AB000B6B20135E4E701F0ABF8F7BD226C216D39
:103AC00013688B431360019BAB42F6D02B78606A7E
:103AD0000093002804D0190001F0D8F90135F2E76D
:103AE00008208026E36BA26BA76C0099BC46176880
:103AF0000E420FD061460F4317601F68E16C01381A
:103B00000F431F601F68E16C76088F431F60002819
:103B1000EAD1E3E761468F43EEE770B50400806ABF
:103B20000D0000280DD0A16D00F0EEFF200029004F
:103B3000FFF725FFA06A002810D0E16D00F0E4FF38
:103B400070BD606A002803D0616EA26E01F06EF94C
:103B5000626C616D13688B431360E7E7626C616DA3
:103B60001368606A0B4313600028E9D001F07AF90A
:103B7000E6E7072110B50A22835E0733DA170A4009
:103B8000D2180821435ED21000215A43C06A07F0C0
:103B90005DFA10BDF0B587B005930CAB1B7804003F
:103BA0000493C36A0F001500002B1BD02000FFF701
:103BB000E0FF0A23E25E0823E15E202A25DC203AAA
:103BC000D30F9A180B00733BD90FC9180123029326
:103BD0001F335210491001935333009312B2AF4B6D
:103BE00009B224E00A22835E07220733D817104067
:103BF000C0180822A35EC010584307F0F7F9061E4C
:103C0000E062D3D1300007B0F0BD403AD30F9A182C
:103C10000B00523BD90FC918012302933F33019384
:103C200012335210491000939D4B12B209B220007A
:103C300000F0A6FC230031331F70A06A002800D1D9
:103C40009AE0002D00D095E00A23E55E203D6A1E33
:103C500095413C35230030331D70049B002B01D06F
:103C600000F032FF059B002B1DD0250000203735CA
:103C70002856002817DB012104F042F8002001211A
:103C8000285604F06DF8012003F0B8FC0020002154
:103C9000285604F065F80A2003F0B0FC002001214A
:103CA000285604F05DF8A06A002800D1CDE0A16D8F
:103CB00000F02AFF042220007A49FFF7CEFE618936
:103CC00020000139C9B2FFF75AFE250076490422C7
:103CD0002000FFF7C2FE00233135EB561021012BE7
:103CE00000D004312000FFF74AFE26000422200005
:103CF0006E49FFF7B2FE8F2360363370A3686C4ABB
:103D0000022793420BD06B4A934200D0AAE00022D4
:103D1000AA569F23012A00D0303312273370DA21AC
:103D20002000FFF72CFE39002000FFF728FE81213C
:103D30002000FFF724FE20003178FFF720FED92174
:103D40002000FFF71CFE0023EB562221012B00D0A0
:103D5000CF312000FFF713FE200006225649FFF75F
:103D60007CFEA06A002800D18AE0E16D00F0CCFE64
:103D7000012647E76DB26DE725000020353528564E
:103D80000121270003F0BCFF0020363701213856FF
:103D900003F0B6FF002318210126EB56474D4B4395
:103DA0005A574748D201121822643200EB185B6858
:103DB0009A4000232265FB564B435A574149D20192
:103DC0005118121862643200EB185B68606A9A40FE
:103DD000130062650A6913430B61002806D0049B37
:103DE000002B00D13EE701F009F93BE72700002056
:103DF00033373100385603F083FF2300002034337B
:103E000004933100185603F07BFF00231821FB5662
:103E10002B484B435A57EB18D2011218A2633200B9
:103E20005B689A40049BA2641B785BB24B435A5771
:103E3000ED186B6823499E40D2015118E6640B6966
:103E40001218B343E2630B610CE7606A002803D0E9
:103E5000616EA26E00F0EAFF626C616D13688B43C5
:103E6000136027E7184A0227934200D057E7002241
:103E7000AA561023012A00D09F33022733704EE741
:103E8000626C616D1368606A0B4301261360002841
:103E900000D1B7E600F0E6FFB4E6C04624EB000030
:103EA00064E800006CED000070ED000074ED0000AF
:103EB000800020008000400078ED000010F4000039
:103EC00010440041004400416000100070B505003E
:103ED000100004AA168800283EDB0A242A5F8242CA
:103EE0003ADD002902DA5B1800211BB20822AC5E21
:103EF0005A18A24201DD631A1BB2002B2CDDC2103E
:103F00005443EA6A61185218072108400639814073
:103F1000C8B2012E0ED0022E15D0002E1CD1C043E7
:103F2000C0B2013B1BB2591C16D011780140117070
:103F30000132F6E7013B1BB2591C0DD01178014349
:103F400011700132F6E7013B1BB2591C04D0117805
:103F5000414011700132F6E770BD0000F0B505ACCC
:103F60002488002956DB0826855FA94252DA002AF8
:103F700002DA9B1800221BB20A27C65FD718B74285
:103F800001DDB31A1BB2002B44DDD2B2D608754353
:103F90006918C56A072669181500DBB23540324238
:103FA00018D00822551B2A4AEDB2525DAB4203D20B
:103FB000EF1AF8363E413240012C2CD0022C2ED084
:103FC000002C02D10E7896430E70AB4222D3082605
:103FD000825F89185B1BDBB2072B0ED9022C21D123
:103FE0001A000D78083AED430D700826855FD2B2AD
:103FF0004919072AF5D807221340002B0AD0154A81
:10400000D35C012C1DD0022C1FD0002C02D10A78C9
:104010009A430A70F0BD0E7832430A70D5E70E78E5
:104020007240FAE725006A1E95411A006D42EDB212
:104030000D700827C65F083AD2B28919072AF7D847
:10404000D9E70A7813430B70E4E70A785340FAE79C
:104050005CED000064ED000037B5140006AA158879
:10406000827E022A0DD0032A18D0012A11D1E24300
:104070000489A41824B20A0000952100FFF76EFFFE
:104080000BE0E2434489C918A418028924B2511AEA
:1040900009B222000095FFF719FF37BD4289C91800
:1040A000511A09B2E7E773B5140006AA1688827E92
:1040B000022A0DD0032A18D0012A11D10589E4184B
:1040C0002C1B24B20A0000962100FFF7FFFE0BE034
:1040D000CA4345890189E41889182C1B09B224B206
:1040E00022000096FFF73AFF73BDCA434189891841
:1040F00009B2E7E7F7B50400806A002848D0A16D4F
:1041000000F002FD052220004B49FFF7A6FC2189A3
:1041100020000139C9B2FFF732FC07210A23E25E11
:10412000A06A0732D3170B409B182289DB10534338
:104130009BB2E66A0093002840D0270030373978D8
:1041400000F0F0FCA06A4021036801251B68984735
:10415000009BA06A013B9BB21A000093374B9A4226
:1041600023D0FE2D0BD900F053FD3978A06A00F062
:10417000D9FCA06A4021036801251B689847A06A02
:104180003178036801351B689847ADB20136DFE727
:10419000606A002803D0616EA26E00F047FE626C78
:1041A000616D13688B431360ACE700F031FDA06ACA
:1041B000002836D0E16D00F0A7FCF7BD226C216D20
:1041C000136801960B431360009B013B9BB21A00DE
:1041D00000931A4B9A42EAD0019B606A1978002832
:1041E00005D000F053FE019B01330193ECE708205A
:1041F0008025E36BA26BA76C16680D420ED0374387
:1042000017601E68E76C01383E431E601E68E76C4D
:104210006D08BE431E600028EDD1E4E7BE43166082
:10422000EFE7626C616D1368606A0B4313600028EE
:10423000C3D000F017FEC0E77EED0000FFFF0000D6
:10424000F0B515000C001E0089B00EAB00229B5E7D
:104250000FAA1288019005925A1BD11752184A4092
:104260000292321BD11752184A4003920399029AC4
:104270008A4205DD32001E00130022002C001500CA
:10428000B44205DD2A001D00130022003400160090
:10429000321B91B20691591BC8170918414012B23E
:1042A0000791D10F8A1852100092012204929D4268
:1042B00002DB01235B420493B44222DC019B039A9C
:1042C0001B689B691F00029B934216DD2200290098
:1042D000059B0198B847009B079A9A1A11B293B2AE
:1042E0000091120406D5049AAD18069A2DB2D3187F
:1042F0001BB20093013424B2DEE72A002100059BA3
:10430000E7E709B0F0BD704710B504682469A0471D
:1043100010BD37B506AC258804680095A46BA0478E
:1043200037BD37B506AC258804680095E46BA04717
:1043300037BD73B506AC0025655F07AC26880468F9
:1043400001960095246CA04773BDF0B516000400DB
:104350000D0085B003930AAB1F8803685B6998471B
:10436000039B2268013B9B191BB2009301972B0012
:1043700029002000976A3200B84723682000DB6AD2
:10438000984705B0F0BDF0B505001C000E00170001
:1043900085B00AAB1B88013C03930368A4195B69D1
:1043A000984703992A68019100973100280023B2A9
:1043B000946A3A00A0472B682800DB6A984705B04A
:1043C000F0BDF0B50E0087B003930CAB0292002253
:1043D0009B5E040004930DAB1B88350005930368B6
:1043E0005B699847039A2368B21895420BDA059ADD
:1043F000290000921B6A20001F00029A049B0135CD
:10440000B8472DB2EEE72000DB6A984707B0F0BD51
:1044100013B501910E24015F0C22835E02680091A6
:10442000146C00221100A04713BDF0B50400150064
:104430000E0087B004930CAB00229B5E05930DAB7E
:104440001B88039303685B699847039A236800926B
:1044500031002A0020005F6A049BB847059B03993E
:104460005A1E236800915219310020005F6A12B26F
:10447000049BB847039A2368009231002A00200069
:104480001F6A059BB8470499039A23680139009273
:1044900089192A0020001F6A09B2059BB8472368C2
:1044A0002000DB6A984707B0F0BD7047F0B585B0D3
:1044B00002930AAB0027DF5F0BAB1B881600039348
:1044C000029B04000D000268994210D1BE4202DD39
:1044D00033003E001F00039901370091BB1B976B0F
:1044E0001BB2320029002000B84705B0F0BDBE4223
:1044F0000CD1029B994201DD029D0291029B03991E
:1045000001335B1B0091D76B1BB2EAE753699847F5
:10451000039A23680192009720009F6A3200029B51
:104520002900B84723682000DB6A9847DDE70323AA
:104530000B4010B583760822835E0A24025FC90708
:1045400002D48381C28110BD8281C381FBE7000058
:104550004281C2810122002310B55242064C4261C1
:10456000064A0834436004600181818103618261ED
:104570000377036210BDC04684F200000101000110
:10458000F0B58DB0089312AB079200229B5E0691A6
:10459000029313AB00229B5E0400099314AB1B88AB
:1045A00000260A93036835005B6998470722029B3F
:1045B0000B92D91DCB1713405B18DB10039333000C
:1045C0009AB20492079A99B28A1812B20592099A7D
:1045D000934226DA0023029A93421CDA9AB201929D
:1045E0000B9A6D00EDB2134203D1089ADB109219B9
:1045F000D55C6BB2002B0ADA019B069A2000991851
:104600002368059A9B6909B21F000A9BB847019B62
:1046100001331BB2DFE7049B039A01331BB2B618C8
:10462000CEE723682000DB6A98470DB0F0BD00009C
:10463000F0B595B01D001AAB1B88049205931BAB17
:104640001E881CAB1B78026A02931DAB1B7804000A
:1046500008910393002A00D0C4E00C22835E8B42B1
:1046600000DC7DE00E22835E049A934278DD06230F
:10467000029A53435B18002B72DD039B049ADB0004
:104680009B18002B6CDD037F002B03D1AF2D01D9CC
:104690000135EDB2236820005B69984705220023AD
:1046A00055430793984B0B925B190F93079A0F9BF7
:1046B0009B5C0A936B469B8B09936B461B89099AFB
:1046C0000E936B461F8C029B5343FB181BB20D933A
:1046D00008230C930023069301220A9B20681342AF
:1046E00052D06B461A8B198A029B012B3AD1039B3D
:1046F000012B37D1099B52188569D919059B12B234
:1047000009B22000A847069B01335BB206930A9BBF
:104710005B080A930C9B013BDBB20C93002BDBD1B3
:10472000079B01335BB207930B9B013BDBB20B93FF
:10473000002BBBD1059BB3420ED0029B2268012BFC
:104740003FD1039B012B3CD105370096156A200011
:10475000049A39B20733A84723682000DB6A9847D8
:1047600015B0F0BD6B4608255B5F039D6A438A1850
:10477000059912B2019169460C25495F0091C569FE
:104780000D992000A847BEE7059BB342BBD06B46FE
:104790001A8B198A029B012B0AD1039B012B07D18B
:1047A000099B5218D9198569330012B209B2A8E7DA
:1047B0006B4608255B5F039D01966A438A1812B217
:1047C000D9E76B4608215B5E05210E9801964143AF
:1047D00003987918C0000090D5692000049A09B2A6
:1047E000A847B9E7137A5168ED1A1268EDB2ED00E7
:1047F00013924A5B4B1909929A780D92DA781192CA
:1048000005229A569B790E925BB20F93029B012B65
:1048100002D8039B012B56D96B4638229B5E0B9323
:104820006B463C229B5E0C930027236820005B694B
:10483000984707970697119B069A9A4200D38BE7F1
:104840006B461B8A00260A930C9B9B18039A5343C2
:104850000A9AD3181BB210933B000D9A96424BD282
:104860005A1CD2B212920722134207D1099B09990E
:10487000139A0133525C9BB2079209936B461B7FDC
:104880005BB2002B17DA6B46198C029B2068012B58
:104890001DD1039B012B1AD10A9B0F9A9A18069BD4
:1048A000D2180E9B12B2C918836989191D00200005
:1048B000059B09B2A847079B01365B00DBB2079353
:1048C000F6B2129BC9E700230C930B93ACE76B463F
:1048D00008229B5E0B9A029D92196A438918059AD9
:1048E00009B201926A460C25525F0092C26920000B
:1048F0001500109AA847DEE7069D0D9B0135FF18AD
:10490000EBB2FFB2069396E783ED0000F0B5026AC2
:1049100004000B0085B0002A34D10A2908D1437E57
:104920000282DB00628A9B186382012005B0F0BD21
:104930000D29FAD0E17E007E657E00290ED010267A
:10494000A15F0626464389190C27E65FB14205DDC3
:104950001226A15F2282EA00521862820290E08A47
:104960001221625E0190A08A1026A15F009003953B
:104970002000FFF75DFE0622237E5343228A9B1808
:104980002382D2E70A2905D100230382127B437ECA
:104990005343C7E70D29C8D0117A8B42C5D3907A0B
:1049A0009842C2D3591A5068C9B2C9004518AF78A5
:1049B000002F28D0E978002925D0E17E207E667E70
:1049C000002913D005216956C91941438C4610218D
:1049D000675EBC440C21675EBC4507DD1227E15FC2
:1049E00000272782127B7243521862820290E08A6B
:1049F0001221625E0190A08A1027E15F0090039669
:104A00002000FFF715FE2B79227EB6E70B1C00294C
:104A100000D10123037643767047F8B505000E00F8
:104A200017000024BC4208D02B682800315D1B68A9
:104A30009847002801D00134F4E72000F8BD704702
:104A40000300FC33196ADA69914203D01B6AC0186B
:104A5000007E704701204042FBE70300FC33D86929
:104A60001B6AC01A01D50130FF307047F7B50193BA
:104A7000FA238027002504009B008360114B7F00F0
:104A800008330E0045602900009203603A00183098
:104A900006F0DCFA23002000FC332130DD613A000F
:104AA0001D622900FF3006F0D1FA87239B00E3182E
:104AB0005D609D60009B20002375019B2661A575AC
:104AC0006375FEBDDCF2000070B5040018260C49C9
:104AD000006901F059F8206900F0A8FE33000821B0
:104AE000207D084D4343EB18595603F07DF908210A
:104AF000607D4643AD19695603F076F970BDC04636
:104B0000A086010010F4000070B504000D000069DB
:104B100000F0A1FE2900206901F036F8206900F0BC
:104B200085FE70BD8A2300229B00C1540C3BC31834
:104B30005A609A600123837570470200FC32536803
:104B400010B501339468DBB29C4202D05468015521
:104B5000536010BD10B50300827D002082420ED04C
:104B6000872292009C186268A4680132D2B2A242E5
:104B700005D02133FF331800FFF7DFFF012010BD00
:104B80000300FC3399685A68914206D09A68805CA9
:104B90009A680132D2B29A60704701204042FBE726
:104BA00000228A2370B59B00827505000E00C15C4F
:104BB000006900F083FE002806D10321286900F077
:104BC00067FE0224200070BD872328009B00EA189E
:104BD000536894682130FF301C1B01D50134FF3429
:104BE000002C0ED02C69FFF7CBFFC1B2200000F0E3
:104BF000A3FE0028E8D10321286900F049FE032420
:104C0000E0E7002EDED00321286900F041FED9E75D
:104C100010B50121FFF7C4FF10BD10B51830FFF724
:104C2000AFFF10BD70B50400006900F0A7FE0028BA
:104C300014D0206900F0B0FE002810D0206900F0E8
:104C40001DFE0321206900F023FE8C239B00E55804
:104C5000002D39D10023FC34E361236270BD20694B
:104C600000F0A4FE002809D0206900F09AFE002878
:104C700004D0206900F09FFE0028DFD0206900F0FA
:104C800095FE002826D1206900F081FE0028E5D09D
:104C9000206900F090FE002837D087239B00E2189F
:104CA000536892689B1A01D50133FF33FF21002B13
:104CB00005D020002130FF30FFF762FFC1B220692C
:104CC00000F04DFEA075C9E7236820001B699847D6
:104CD000A847BFE7206900F0D1FD2069032100F05B
:104CE000D7FD206900F067FE0028B7D08723002297
:104CF0009B00E3185A609A600123A3758B239B00E5
:104D0000E3589342AAD09847A8E72200FC32D3691F
:104D1000126A0133DBB22069934206D100F0A5FD8F
:104D20000321206900F0B4FD98E700F049FE01007E
:104D300020001830FFF701FF206900F09FFDEFE72A
:104D400010B50248FFF76EFF10BDC04610050020E9
:104D500010B51B231A2202490248FFF787FE10BD37
:104D6000E40C00201005002010B500F04FFB0022DD
:104D7000024B8000C35849331A7010BDE40700206D
:104D8000F0B5040085B01E000AAB1B78103001930B
:104D90000BAB1B78170002930CAB1B780D00039331
:104DA00000F0B6F92000243000F0B2F92200002310
:104DB0004832A363E36323646364137053706372C4
:104DC0009D4205D12721084B084A094806F0A4F85E
:104DD0002000019B25606371029B2771E371039B97
:104DE000A671237205B0F0BD00F3000011F30000BE
:104DF00065F3000030B5040085B002AD0068029193
:104E0000039200F0CFFC6B79227AE179206800935D
:104E1000002300F08FFE2979029A206800F0E6FC5A
:104E2000206800F0B5FC05B030BD000007B5837AFE
:104E300000910192002B07D09A070AD5EFF3108357
:104E40005A425341C37272B60099019AFFF7D2FFDA
:104E500007BDDB07F8D5C368014A9BB29360F3E74F
:104E600000180040837A002B05D09A0704D5C37A36
:104E7000002B00D062B67047DB07FCD5C368024A3E
:104E80009BB2D360F7E7C0460018004010B5006839
:104E900000F091FC10BD000010B5006800F09EFD10
:104EA00003000020834203DB0C304343014A98583F
:104EB00010BDC046C8F3000010B5006800F08EFDBC
:104EC000002805DB0C2343430348C018406810BD8D
:104ED00001204042FBE7C046C8F3000010B500685F
:104EE00000F07CFD002805DB0C2343430348C01879
:104EF000806810BD01204042FBE7C046C8F30000B7
:104F0000F0B506001036050089B0300000F056F903
:104F100000286CD12F002437380000F04FF9041E10
:104F200062D12800FFF7DAFFC1B2300000F026FAA4
:104F30000221300000F046FA01222E49300000F034
:104F400019FA300000F062FA2B4B8000C55028009F
:104F5000FFF7B2FFC1B2380000F010FA02213800AA
:104F600000F030FA380000F051FA234B8000C550B1
:104F70002800FFF791FF0123010022000293300077
:104F80002300049403940194009400F041FAA86370
:104F90002800FFF781FF0123020021000193380060
:104FA0002300049403940294009400F031FAE8631F
:104FB000402006F01BF82A00483228640792002897
:104FC0000BD00123137068646B6C10221819E96B05
:104FD000103406F01FF8402CF6D1079B1B78002BED
:104FE00005D1380000F084F9300000F081F909B0F3
:104FF000F0BDC046694D0000E407002070B5437A5B
:105000000400002B03D1012243814272C3602300BC
:1050100048331B78002B02D12000FFF771FF1826C0
:105020003300082120790D4D4343EB18595602F007
:10503000DBFE33000821A0794343EB18595602F0F8
:10504000D3FE082160794643AD19695602F0CCFEC3
:10505000034B200006CBFFF7CDFE70BD10F400001F
:10506000DC0700201FB500240D4B0E4A9C801A60FF
:10507000012301931C3300931C220B49029401333A
:105080000A48FFF77DFE0223029323330093242274
:105090000749019401330748FFF772FE1FBDC04660
:1050A000DC07002000093D00E80C00204407002038
:1050B000E00C002090070020084B1968002909D156
:1050C000EFF31080064A002803D172B6BFF35F8F5A
:1050D000013111701A6801321A607047A809002066
:1050E000A4090020084B1A68002A0CD01A68013A5B
:1050F0001A601B68002B06D1044B1B78002B02D0D2
:10510000BFF35F8F62B67047A8090020A409002092
:10511000FF2310B50370C023002104009B004170E1
:10512000418083800C22083005F090FF200010BDE4
:1051300001230A0010B51A40194208D00C4A137016
:10514000033343708368002B00D0984710BD0223BF
:10515000194204D006490B70C3684270F3E7042378
:105160001942F3D0024A1370033343700369EAE72C
:105170004E48004110B5FFF79FFF0C4B1B8C1B07DF
:105180001B0F0B2B0FD80A4A9900885800280AD009
:105190000F2408490A78A24313430B70064B197871
:1051A000C9B2FFF7C5FFFFF79DFF10BD00480041E2
:1051B000AC0900203F4800414E480041F8B50023AB
:1051C0000278050018000B2A77D93C4E2B702B78FB
:1051D0000B2B07D801229A403168114204D00133C9
:1051E0002B70F4E7012068E0FFF766FF3768344C66
:1051F000002F2BD12022334B334859690A435A617F
:105200001022D9690A43DA610222238839009343C4
:1052100023802388013A134323802C4B6063BF32E1
:10522000A36305F013FFC0223900284805F00EFFE4
:105230004022C120264B80002380264B26491A603D
:105240001A581140C02212040A431A5001231A00AE
:10525000297830688A40024332600F261F4A88004E
:1052600085501F4831400278B2430A430270022041
:105270001C4A1178814311701178194311702978F3
:1052800022698B409A43226160223F21636C9343E1
:1052900063642A79636C0A40134912020B400321AC
:1052A000134363646A79636C0A40104992050B40AA
:1052B00013436364FFF716FF0020F8BDA009002028
:1052C0000048004100040040E008002020080020C1
:1052D000020F000000E100E0FFFF00FFAC0900202A
:1052E0003F48004140480041FFC0FFFFFFFF3FFF34
:1052F00070B50500FFF7E0FE6B785CB2062B2BD093
:105300002B7802240B2B27D801229A40144B1968C2
:10531000114221D01968914319601B68002B14D1E8
:105320004022104BDA67BFF34F8FBFF36F8F21001E
:105330000D4A0E311388A34313800C4BDA698A435C
:10534000DA615A6910318A435A6100242B78084A7D
:105350009B009C50FF232B70FFF7C4FE200070BD04
:10536000A009002004E100E00048004100040040E2
:10537000AC0900200232920011507047037870B5DA
:1053800005000C0001710B2B14D8FFF795FE29784E
:105390000F25094829400378084AAB430B430370A3
:1053A0003F23516C1C40064B240219400C435464AB
:1053B000FFF798FE70BDC0463F48004100480041DD
:1053C000FFC0FFFF037870B505000C0041710B2B87
:1053D00014D8FFF771FE29780F2509482940037872
:1053E000084AAB430B4303700323516C1C40064B2C
:1053F000A40519400C435464FFF774FE70BDC04609
:105400003F48004100480041FFFF3FFF00787047E0
:10541000F0B587B001930CAB1E780DAB1B7805007F
:1054200002930EAB1B780078039310AB1F780491A6
:1054300005920B2802D9002007B0F0BD6B78062B2F
:10544000F9D0AB78002B00D179E01021080005F0ED
:10545000C3FD0028EFD02B783B4A1B019B181A0094
:10546000D168002904D0D1688B4201D0D268F7E717
:10547000D06001220223AA70964203D0DB18022ECC
:1054800000D0130006240188114301800188A14344
:10549000018001881234A1430180153C0188264017
:1054A0002A4C360221400E430680029E0188284C79
:1054B00016402140B6020E430680039E0188254C0B
:1054C00016402140F6020E4306800188224E3A40E3
:1054D000314012030A43072102800F9A11400288CB
:1054E0004903D204D20C0A4302806A469288428061
:1054F000049A4260029A002A08D0019A41685A43ED
:10550000002F01D00F9CA2408A184260059A826049
:10551000039A002A09D0019A84685A431300002F85
:1055200001D10F9A9340E31883600023EA789A42EE
:1055300003D02B78044A1B019B18C3607CE7024B05
:105540000001C01895E7C046E0080020FFFCFFFFFF
:10555000FFFBFFFFFFF7FFFFFFEFFFFF10B5024864
:1055600001F0E6FC10BDC046DC09002013B5114C6B
:105570001149200000F076F81049114800F072F847
:105580001049114800F06EF81049114800F06AF80F
:105590001049114800F066F81049114800F062F80F
:1055A0000123032221000092019300220D4801F003
:1055B00055FC13BDD80C002000080042000C00422E
:1055C000DC0C002000100042E00C0020001400421F
:1055D000E40C002000180042E80C0020001C0042EF
:1055E000EC0C0020DC090020F8B505000E001700C7
:1055F0000024BC4208D02B682800315D1B68984706
:10560000002801D00134F4E72000F8BD70B5050092
:105610000C00081E07D006F02FFC2B6802002100AA
:1056200028005B68984770BD10B503688A685B689E
:105630000968984710BD10B5FFF7E8FF10BD0000DE
:1056400010B50249FFF7E2FF10BDC04618F8000090
:1056500070B50400FFF7DAFF05002000FFF7F0FF48
:10566000401970BD016070479446F0B505AC2578CF
:105670009C1E621E944162460668920737682406A3
:105680003A4322430724326000682140AD010024E0
:1056900042682943022B00D05C030A432243426044
:1056A000F0BD30B5C0250368AD031C6812052A4063
:1056B0002243C0240904A40221400A431A6003685B
:1056C0005A6814435C6030BD0123026811680B43C3
:1056D000136003681A68D207FCD4DA69D207F9D4D8
:1056E00070470223026811680B4313600268D36994
:1056F0009B07FCD4704703681A7ED20702D41A7E37
:105700009207FCD57047002203685A8370470368EC
:10571000187E4007C00F70470368187EC0097047A5
:10572000802302685B42117E0B4313767047036847
:10573000588B8007C00F704702230268518B0B43C0
:10574000538370470368187EC007C00F7047036813
:10575000188DC0B2704703681A7ED207FCD589B293
:10576000012019857047012203689A75704701224C
:1057700003681A7570470123026811680B431360B0
:1057800003681A68D207FCD4DA69D207F9D47047E3
:105790000223026811680B4313600268D3699B07F8
:1057A000FCD470470368DA699207FCD402211A68B6
:1057B0008A431A6070470268936A5B0A5B020B4374
:1057C000936203681A7E5207FCD5986AC0B270478C
:1057D00010B50548490002F057FC80B2002801D0FE
:1057E000013880B2C0B210BD006CDC0270B50C0094
:1057F000012611006308026833403440156824070D
:105800005B0723432B4313600468FFF7E1FF20731A
:1058100070BD0123026811680B43136003681A68A6
:10582000D207FCD4DA69D207F9D4704702230268A0
:1058300011680B4313600368DA699207FCD43021C6
:105840005A8B8A43110010220A435A830268D36993
:105850005B07FCD470470221026813688B43136016
:105860000268D3699B07FCD4704780230268DB027F
:10587000116851680B435360704700000368034987
:105880001A685A680A405A607047C046FFFFFBFF1B
:10589000032230B5036811401C68074D5A6809049B
:1058A0002A40E4061143640F5960052C03D10268B5
:1058B000D3695B07FCD430BDFFFFFCFF30B5036844
:1058C0000400588B8006800F022813D05D8B0020C7
:1058D000AD06AD0F032D2ED0588B800705D55D8BFF
:1058E0000020AD06AD0F012D25D15D8BAD06AD0FAE
:1058F000281E20D04800596A1043C90AC0B2C90204
:10590000014359622368002A08D11A7ED207FCD5C8
:10591000588B01234007C00F58400CE01A7E9207B5
:10592000D00F002AF4DB1A7ED207F7D5C0225968BF
:1059300092020A435A6030BD036828331970026826
:10594000137EDB07D80F002B03D1538BDB07F7D572
:1059500070470123508B4007C00F5840F8E7036899
:10596000283319700268137E5B07D80F002B04DA06
:105970000123508B4007C00F5840704703681868D8
:10598000C006400F043843425841C0B27047036814
:10599000187E4007C00F70470368187EC007C00F0D
:1059A00070470368588BC006C00F70470368187EA5
:1059B0008007C00F70470368588B0007C00F7047FF
:1059C00003681A68D206520F052A02D11A7E92077E
:1059D000FCD528331878C0B2704700000368104A1D
:1059E000934213D00F4A934212D00F4A934211D0E0
:1059F0000E4A934210D00E4A93420FD001200D4A16
:105A00004042934201D1063040B270470020FBE78C
:105A10000120F9E70220F7E70320F5E70420F3E788
:105A200000080042000C0042001000420014004236
:105A300000180042001C0042F8B5FFF7CFFF002815
:105A40002CDB1D4BC000181805230479C356032016
:105A5000FF221840C0008240C021D2438140002B69
:105A60001DDB1F2501201D40C026A840134D7600D8
:105A7000A851C0269B089B005B19B6009F593A406D
:105A80001143995128603F2323408024E4011C43A3
:105A90000B4B5C805A7852B2002AFBDBF8BD0F201A
:105AA0000340083B07489B089B001B18D86902402D
:105AB0001143D961E7E7C0461CF8000000E100E0AF
:105AC000000C004000ED00E0F8B504000F001600E7
:105AD0001D00FFF7B1FF2000FFF7F6FD1C21BB0002
:105AE0000B4071072268090C0B4313608423226862
:105AF0009375012F1AD11021012E00D008390C4BBB
:105B000069431868C00002F0BFFA0722216802400A
:105B10008B895203DB04DB0C13438B812268030463
:105B20009089DB0C400B400318439081F8BDC046C0
:105B3000C8000020F7B50500019308AB0C00160063
:105B40001F78FFF718FE2800FFF776FFC021C0225C
:105B5000890224040C409203BF07360527431640F0
:105B60003E430C2707222B683E431E60019B296899
:105B700013401A0080239B0213434B602A68D369A9
:105B80005B07FCD4F7BD0000F8B504000F00FFF779
:105B900053FF2000FFF73DFE1422236879001A60AE
:105BA0000C4B25681E68300002F06EFA0A490400AA
:105BB000300002F069FA7D23FA215843C90002F04F
:105BC00063FAFF23241AE868053C1C409843044309
:105BD000EC60F8BDC800002040420F003F20704735
:105BE00013B56B460268D971073354681900012256
:105BF000A04716BD10B50221006900F051FC10BD90
:105C000010B50321006900F061FC10BD10B5130050
:105C1000084A0400D279002A03D1012300206360DE
:105C200010BD0A000069032100F048FD0028F4D0EF
:105C3000F6E7C0465000002010B5054C0300206870
:105C4000421C04D11A68180052699047206010BDA8
:105C50009C000020074A0300106810B5411C03D0C7
:105C600001235B42136010BD0221186900F018FD8A
:105C7000F9E7C0469C00002010B5037842220233A9
:105C800003700249024800F0C5FD10BD5800002015
:105C90000C0D002010B50178030042780020A129E6
:105CA00008D1212A05D1174917481A3A00F0B2FD48
:105CB000012010BD2129FCD1202A13D111491248FD
:105CC000193A00F047FC96220E4BD2001968914217
:105CD0000ED1DA7901231A420AD1FA2002F0E2F851
:105CE0000020E6E7222A06D19A78064BDA71EAE725
:105CF00002F0DEF8F4E7232ADBD15A88034B1A605E
:105D0000D7E7C046500000200C0D00204C000020BA
:105D100010B501F03DFCFA2300245B00984207D344
:105D2000044B0A20DC79631E9C41E4B201F066FC5E
:105D3000200010BD50000020FA220021054B9200E7
:105D40009A60054A08321A60044A59601A61197645
:105D50007047C046F00C00204CF800000C0D0020ED
:105D6000704770B50F26CB1D02003240D5B22C0013
:105D700000093034092A00DD07341C705A1E99428C
:105D800000D170BD1300EFE710B50400806905F085
:105D900037F9A06A05F034F9200010BD10B50400F1
:105DA000FFF7F2FF200001F0B9FC200010BD000059
:105DB00070B5032908D1324B8000C058002802D0AA
:105DC0000368DB68984770BD82291FD1C3B22D4D8F
:105DD0005A01AA1891692C4C80010C40C0218905F8
:105DE00021439161294908334018802150612A6874
:105DF0005B01D01804794942214301717020995CFC
:105E000081430800302101439954DCE70029DAD1AD
:105E1000C024C1B21B4E4A01B21893681A4DA405A2
:105E20002B40234393601A4B8001C0180B00506035
:105E30003068072608335B01195CB1430E0001216D
:105E40003143195491690D402C43946170240F49DA
:105E50005161195CA1430C00102121431954916830
:105E60000C4CC3180C408021490321439160916878
:105E7000890B89039160402259790A435A71A2E73C
:105E8000100D0020C4110020FFFFFF8F380D0020EF
:105E9000F80E0020FF3F00F0EFF3108303600123B2
:105EA000436072B670470368002B02D162B6BFF33D
:105EB0006F8F704737B5056904006846002D14D10F
:105EC000FFF7EAFF019B621D013B02D3D57FEDB2D4
:105ED000FAE768460193FFF7E6FF002D01D10020A5
:105EE0003EBD206AE369C01AFAE7FFF7D5FF22003A
:105EF0000025019B3432013B02D31578EDB2FAE75D
:105F000068460193FFF7CFFF002DE8D0206BE36ACE
:105F1000E9E70000F0B5FF250126426883681168B3
:105F20002B405B01CC186419A77AD3183E43A672A4
:105F3000C6689C680B4FB60436093C4034439C60ED
:105F400083682B405B01D2189468A40BA40394606F
:105F5000402283682B4008335B01CB1819790A4330
:105F60001A71F0BDFF3F00F0F7B5056904000E009F
:105F700017006846002D43D1FFF78EFF019B601D7F
:105F8000013B5A1C0BD0C27F591E002A05D168461E
:105F90000193FFF788FF2800FEBD0B00F1E768467C
:105FA0000193FFF780FFE369AF420AD0226A9A4269
:105FB00007D95A1CE261A269D3181B7873550135C1
:105FC000F1E7226A9A42E6D10023E3610133684691
:105FD0002361FFF761FF22000021019B671D013B48
:105FE0003532581CD3D0F97710785E1E002805D0C2
:105FF000200011700193FFF78DFFECE73300F0E70D
:10600000FFF74AFF2000019B3430013B5A1C06D0A9
:106010000278591ED5B2002AB9D00B00F6E76846BF
:1060200001930025FFF73FFFE36ABD4202D0226BD8
:106030009A421CD8226B9A42ADD100236846E36293
:106040002361FFF729FF270022000021019B34373D
:10605000013B3532581C9AD0397010785E1E0028EA
:106060000DD0200011700193FFF754FFEBE75A1C8D
:10607000E262A26AD3181B7873550135D4E7330066
:10608000E8E7F7B582684368D2B21100040008312E
:10609000186849014118C879C00729D5012552015E
:1060A000CD719B189A6861699204920C002923D1E2
:1060B0002262226A002A41D0A26A656168465A605B
:1060C000FFF7EAFE342294462200019B671D013B44
:1060D000A4443532591C2DD06146FD770978581EED
:1060E000CEB2002905D0019368461570FFF7DBFE9C
:1060F000F7BD03001670EDE72263226B002A1DD066
:10610000002227006261A26968465A60FFF7C4FE58
:10611000019B621D9446013B34373032591C09D033
:1061200061463D70C97F581ECEB20029DBD1030005
:106130001670F3E768460193FFF7B5FE2000FFF7FE
:10614000E9FED5E713B56A4600230C00D01DD371D4
:10615000FFF792FD23681818206001F01FFF6B46BF
:10616000D91D01F0E7FE236818186B462060D87926
:1061700016BD00000421034B1A6813788B4313707B
:106180007047C046C411002003290ED180220E4B57
:1061900062311B68FF31585C524202435A546822F4
:1061A0006339FF32FF39995470470129FCD18022AD
:1061B000054B24311B68FF31585C524202435A544C
:1061C00028222339FF32EDE7C411002070B50025E5
:1061D0002F4B0121040020201D7001F091FD0121B1
:1061E000202001F0BDFD2B4B01211F201D7001F06F
:1061F00087FD01211F2001F0B3FD2023264A0F2037
:10620000D1690B43D361012224490B7813430B70EE
:10621000234B19788143197006211D782943197081
:1062200020490D782A430A701A7802401A706022B9
:1062300019780A431A701C4B1C4A5A805A78D209A2
:10624000FCD11B4801F09EF91A4D280001F0BAFE5E
:10625000280001F0CDFE7F212B68C1201A78800034
:106260000A401A70042219780A430C211A701A89FC
:106270008A4311491A810A581202120A0A508022CE
:106280000A6019787E3A0A431A700123237070BDA0
:106290002D0D00202C0D002000040040584400412A
:1062A0003C44004159440041000C004006400000BD
:1062B0009D6C0000C411002000E100E0007800287F
:1062C00010D00121084B1B681A898A431A810822C1
:1062D000198B0A431A830422198B0A431A8300225A
:1062E000024B1A607047C046C4110020BC11002048
:1062F0000A000E498B699B0B9B038B610B68022183
:10630000FF3319729879823901439971197A890793
:10631000FCD57F20064B0240997A814311438022AD
:106320009972997A52420A439A727047C4110020B6
:10633000005000410078002805D0034B1A68012363
:1063400011890B4313817047C411002010B50B79DC
:106350000C00002B0CD10800FFF79CFC002801D09A
:10636000012010BD094A93699B0B9B039361F7E7DA
:1063700001F014FE210001F001FE0028F0D1034AD3
:1063800093699B0B9B039361EBE7C046C41100200C
:10639000F7B50D001100832A19D1EBB2324C5A0126
:1063A000A21891693148AD010840C0218905014317
:1063B00091612F4920686D187021083355615B0188
:1063C0001A5C8A43110040220A431A54F7BD022A7C
:1063D00045D1284AAB009858002802D003685B6971
:1063E0009847382001F096F9234B8027036000235B
:1063F0001D4E7F00421D036203614361C36146601D
:106400008560C760D3772F32C362036304001370C3
:106410003800537004F0EAFD0190A061380004F0E8
:10642000E5FDEBB25A01A062B21891680F4808333B
:106430000840C021890501439160316807265B014E
:10644000585CAD00B0430600032030435854019B14
:1064500020005360FFF75EFD064B5C51B6E7280055
:10646000FFF7A6FCB2E7C046C4110020FFFFFF8F74
:10647000380D0020100D002078F8000070B50500E0
:106480000124064BA200D258002A05D02100280082
:10649000FFF77EFF0134F4E770BDC046A000002086
:1064A000084B8A00D05810B5002803D003689B68B9
:1064B000984710BD044BC9B2490159188868800437
:1064C000800CF6E7100D0020C411002010B50C0060
:1064D000FFF7E6FF00280CD0064BE4B219688023D2
:1064E000083464010C1962795B421343637102231F
:1064F000E37110BDC411002070B5CBB2124A13482D
:106500005C0189018918021951609168104D0833A6
:106510000D40802189022943402591609168890BB3
:106520008903916001685A018A18167935431571FB
:1065300095796D06FCD55B01C918CB79DB07FCD5D5
:1065400000198068C0B270BDF80E0020C411002090
:10655000FF3F00F070B5140040220B4B0D001B688C
:10656000FF3359790A435A710021FFF7C5FFA04252
:1065700000D9200000230549A34203D0CA5CEA5495
:106580000133F9E770BDC046C4110020F80E0020A9
:1065900010B50C48C9B24901421893689B049B0C82
:1065A0003F2B0BD99468403B9B04A40B9B0CA4038A
:1065B0002343936041188868C0B210BD93689B0B59
:1065C0009B03F6E7C4110020F0B51C002F4B85B0EB
:1065D0001B6806000D000192002B54D02C4F3B7815
:1065E000D9B2002B02D11F2001F0BAFB64233B700B
:1065F000284BAA00D058002808D0036822005B6806
:10660000019998470400200005B0F0BD2900300032
:10661000FFF746FF844204D929003000FFF740FF0E
:10662000040029003000FFF7B3FF0121EBB21A4F3D
:1066300003935B010293029A3B6801989B18FF3316
:106640005A7A0A435A72154BA9012200C91804F05C
:10665000E1FC002CD7D029003000FFF721FF0028F3
:10666000D1D14021039B3A6808335B01D3181879D4
:10667000014319710121D971029BD318FF339A7A12
:106680000A439A72BFE701246442BCE7BC110020B0
:106690002C0D0020100D0020C4110020F80E002049
:1066A00013B56B46DC1D22000123FFF78DFF012887
:1066B00001D1207816BD01204042FBE7F0B51C0057
:1066C0003A4B85B01B680E000192002B3FD080230F
:1066D000DB019C423BD8364D2B78D9B2002B02D13E
:1066E000202001F03DFB642300272B70314BB201C9
:1066F000D3180293002C2CD02F4B1B680393FF233D
:1067000033401D0000930835039B6D015D19AB7983
:10671000DB0921D0294B2A49186801F0B5FC294B27
:106720001721584301F0B0FC274BEA79920713D4A4
:106730009A5D002A01D10138F7D201229A55009BB7
:106740005A011D4B9B189A69920B92039A6101277B
:106750007F42380005B0F0BD00221B4B25009A5542
:10676000402C00D940252A000199029804F052FCDF
:10677000009BA9045A01104B890C9B18029A7F199F
:106780005A619A69641B920B92030A439A61009BB7
:10679000039A08335B01D3180222DA715979823ADD
:1067A0000A435A71019B5B190193A3E7BC110020B6
:1067B0002D0D0020380D0020C4110020C80000203D
:1067C00040420F00701101002F0D002070B50C0029
:1067D0001D000D4BA601F618110030002A0004F030
:1067E00019FCE4B2094A640114196661A3690849F5
:1067F00028000B40A361A169AB04890B9B0C8903A2
:106800001943A16170BDC046380D0020C41100209D
:10681000FF3F00F0F7B5104B0F001B7814000190FC
:10682000002B0CD10D4B16001D78002D09D00C4EFD
:106830000C48358828182D1904F0ECFB3580200011
:10684000FEBD002EFBD033007A1900210198FFF71E
:10685000BDFF2D18361AF4E7B8100020B91100203A
:10686000BA110020B9100020F8B500200D00140066
:1068700000AF012A27D9D31D6A46DB08DB00D31AF3
:106880009D46080005F0F8FA6E4603230222002117
:106890000130400030707370A2420DD22878002879
:1068A0000AD0531CDBB20135B0549C4203D00232F3
:1068B000F154D2B2F0E7220031000448FFF7AAFFFA
:1068C000431E9841C0B2BD46F8BDC0460C0D002025
:1068D000F0B50025012785B0184B0E0069461F70E2
:1068E00004000095FFF72EFC154B01A90B806A3BB5
:1068F000FF3BCB716E3B0B72009B320009334B8028
:106900000E4B8D714F7108711D70092E0FD00D4EF9
:10691000092237700C4F200000953D80FFF77AFF69
:1069200069462000FFF70EFC3A88084935702000C0
:10693000FFF770FF012005B0F0BDC046B810002081
:1069400009020000B9110020BA110020B91000207E
:10695000F0B5CF7805000E0093B0022F09D1C98899
:106960002B48FFF7B5FF441EA041C4B2200013B06E
:10697000F0BD01F013FB310001F0F0FA002803D064
:10698000C417241AE40FF1E7012F0BD1F288214933
:10699000112A11D8D2B2002A0ED02800FFF73AFFF0
:1069A0000124E3E70400032FE0D1B378002B05D1E5
:1069B000F2881949032AEDD90A78EEE7022B06D1AD
:1069C000B27916492800FFF74FFF0400CEE7012BEC
:1069D00002D1B2791249F5E7032BC7D1114B01A9B6
:1069E0001868FFF7BEF9104B03A91868FFF7B9F94B
:1069F0000E4B05A91868FFF7B4F90D4B07A91868E5
:106A0000FFF7AFF96B460533DC77B27901A9D9E717
:106A10000C0D0020B1F80000A4F8000090F8000070
:106A2000A8F800000CA0800040A0800044A08000D6
:106A300048A0800037B5050048780C000B2810D816
:106A400001F00EFB061B0F310F484D7551546E714E
:106A5000097801AA002906D1022311802800FFF736
:106A6000B5FE01203EBD00231380324B1B78012B65
:106A700000D1137002230021F0E78A780023012A55
:106A800009D16A4693802C4B1B78012B00D11371DE
:106A9000022301AAEFE7274A1370284A93699B0B48
:106AA0009B039361DDE78C78012C07D1224B01AA6F
:106AB0001C70234B1B7813702300DCE700208442FA
:106AC000D0D11C4B01301D4A187093699B0B9B035E
:106AD0009361C7E728008978FFF70AFCC1E728001F
:106AE000FFF736FFBEE70123164AC4E70B78002004
:106AF000DB06B7D12800FFF7C1FC2A200221A278CB
:106B0000104BFF301A600D4A13681C5C21434A2465
:106B10001954FF34195D2938FF3801431955D4E75A
:106B20000123094AA7E78A78074B1A60B5E70020D6
:106B300098E7C0462E0D0020360D0020C41100201D
:106B40001AF80000BC110020C01100204B4BF7B513
:106B50001C780700002C00D083E0494E33689B8BE3
:106B60001B070ED521002000FFF722F93268102301
:106B70001100FF31887A03438B72424B1C6008235B
:106B8000938333689A8B52071FD504229A833E4A17
:106B90001378002B0AD01378013BDBB21370137803
:106BA000002B03D10121202001F0DAF8374A1378B5
:106BB000002B0AD01378013BDBB213701378002B43
:106BC00003D101211F2001F0CBF83368FF331A7A7B
:106BD000D2061ED510221A72597930320A435A71E0
:106BE00060232B4938000A781A423BD1FFF722FF75
:106BF0003368FF33002838D08022997952420A4303
:106C00009A711A7A520604D540221A72597A0A43A6
:106C10005A72336800241D8C01239D43EDB2019309
:106C2000E1B2002D1DD02B002341019A134215D053
:106C30002300326808335B01D318DA79D20702D413
:106C4000DB799B0707D5134BA200D058002810D042
:106C500003681B689847019BA3409D430134092C9E
:106C6000DED1F7BDFFF772FBC2E720210A4A91711E
:106C7000C7E73800FFF788FAEDE7C046B9110020F2
:106C8000C4110020BC1100202D0D00202C0D00206F
:106C9000F80E0020100D0020FF50004110B50248F2
:106CA000FFF754FF10BDC0460C0D0020014B024AF7
:106CB0001A607047C4110020005000410120704745
:106CC00010B50368014A1B6A984710BD1304000001
:106CD0000300FC33D96F9A6F914203D0DB6FC01869
:106CE000007D704701204042FBE710B504000069B9
:106CF000FEF7EAFC22000023FC329367D3679E2252
:106D00009200A4186366A36610BDF0231B0119400E
:106D1000802306209B0099420AD00133FF330130C3
:106D2000994205D0802300205B00994200D10530B4
:106D300070470F2001400020012903D00239481E6E
:106D40008141481C70470000B923F0B5182785B071
:106D500002919B000400C05C3B0008214343324E7B
:106D60001500F318595601F03FF8304B0821E05C4C
:106D70003B004343F318595601F036F82C4BE25CC4
:106D80000393022A09D11133E05CFF2805D00821C2
:106D90004743F719795601F027F8BA27BF00E05D9D
:106DA000FF2819D0012100F0ABFF1822E35D214933
:106DB0005A43B356B618DB015818BB2189006050FE
:106DC0001D4901225B18BC218900635071688A400B
:106DD000BD21890062501A600122029B11002069C6
:106DE000FEF772FE29002000FFF78FFF2900060042
:106DF0002000FFF79EFFF0221540303D6A425541CA
:106E000003003100206901220095FEF72DFC0B4B99
:106E10002069E25C039BE15CFEF743FC2069FEF71E
:106E200060FC05B0F0BDC04610F40000E5020000B3
:106E3000E70200001844004114440041E60200004B
:106E4000AF2210B504000021520004F0FFF8230027
:106E50000022FC3320005A669A6610BDF7B51D006B
:106E600008AB1B780400009309AB1B781600019354
:106E700000234360FA239B008360104B0F0008330C
:106E800003601430FFF7DCFF20007D30FF30FFF798
:106E9000D7FFB9239B002761E654094B009AE554BC
:106EA000084B2000E254019A074BE254BA22E93B16
:106EB000FF3B9200A3541032A354FEBDC4F800005F
:106EC000E5020000E6020000E70200000300FC33D8
:106ED000586E9B6EC01A01D55F30FF30704710B5F9
:106EE000040020007D30FF30FFF7F0FF0028F8D1CC
:106EF0002069FEF700FC10BD10B51430FFF7E6FF67
:106F000010BD0300FC33596E9A6E914205DB5A6E38
:106F1000986E801A5E30FF307047986E5B6EC01AB4
:106F20000138F9E710B57D30FF30FFF7EAFF10BDFB
:106F300070B504000069FEF7FAFB002805D020694F
:106F4000FEF705FC2069FEF7F7FB2069FEF7DFFB83
:106F5000002824D025002069FEF7F9FBAF21FC357D
:106F60000600A86F4900013001F014F9EB6F994257
:106F700003D0AB6FE3181E75A967BA239B00E35CCF
:106F8000FF2B0CD020001430FFF7BBFF092806DCD4
:106F9000BB23BD229B009200E358A2581A602069CF
:106FA000FEF7D0FB00281DD020007D30FF30FFF71A
:106FB0008DFF002825D09E239B00E618B26E736ECD
:106FC0009A421BD0BE22AF21B36EB06EE3185200BE
:106FD000013049009D5C01F0DDF8B1662069E9B23D
:106FE000FEF7B9FB2069FEF797FB002805D0206962
:106FF000FEF796FB2069FEF786FB70BD01256D420A
:10700000ECE72069FEF7B3FBECE70000F7B50400FE
:1070100000690E00FEF796FB002847D1AF277F00DE
:107020009E239B00E518686EAB6E3900013001931A
:1070300001F0B0F8019B994224D1EFF31083DB07F4
:107040000ED4204B5B68DB05DA0D002BE8D0103A3C
:1070500053B212060DD49B081B4AC0339B009B58A9
:107060002069FEF76FFB0028DAD02000FFF760FFF1
:10707000D6E70F221340083B144A9B089B009B183D
:107080001B68EDE7AF21686E4900013001F082F81E
:10709000AB6E994205D0BE226B6E5200E3189E542F
:1070A00069662069FEF75FFB0120FEBD20007D3090
:1070B000FF30FFF70BFF0028B0D131002069FEF749
:1070C0004AFBF1E700ED00E000E100E01CED00E02C
:1070D00070B50500FC35EA6FAB6F04009A421DD015
:1070E000AF21EB6F4900C318E86F1E7D013001F03E
:1070F00051F8E967BA239B00E35CFF2B0CD020001A
:107100001430FFF7FEFE0A2806DDBC23BD229B00DB
:107110009200E358A2581A60300070BD01267642F2
:10712000E8E70000F7B50092182216264243544BB8
:1071300007009B189E570191731C52D0514B524C23
:107140001D68002D2BD129004422504803F07EFFFA
:10715000290044224E4803F079FF10224D4B4E493E
:107160001D604E4BCA67BFF34F8FBFF36F8FC021B7
:10717000C12049005A5080001958FF35A9431950C1
:107180001A60474B474A5A800223227813432370E0
:107190006378DB09012BFBD001223A4B1A600123F3
:1071A0001D00B54062692A436261019A002A18D025
:1071B000102E1FD1E2781343E370009B042B0BD8F1
:1071C00018000723A2789A4300F04AFF030C0E1020
:1071D000120005231343A3702D4B019A1A64ADB21C
:1071E000E560F7BD0423F5E70323F3E70223F1E7A6
:1071F0000123EFE738000027002100F0F5FD254BC3
:1072000022499C461B68BA00BB421DD1604601332F
:1072100003601F4B8D5001999950072E19DD3200E4
:107220000123083A92000720904017499B005B1801
:1072300099698143996100990429D0D8080000F028
:107240000FFF0B1215181B008858A842E1D0013718
:10725000D9E70023B200E6E70521986991400A00CA
:1072600002439A61BBE704219869F7E70321986913
:10727000F4E702219869F1E701219869EEE7C04639
:1072800010F4000050130020001800400C130020E0
:10729000C81200205413002004E100E000E100E0E7
:1072A000000C00400540000070B50024094D0A4B59
:1072B0001B68A34200D870BD084E2A6833691A4281
:1072C00005D0074BA200D35898472B68336101348F
:1072D0000435ECE70C130020541300200018004084
:1072E000C8120020054B10B51B6C002B00D098472E
:1072F0000123034AD1780B43D37010BDC81200207C
:107300000018004010B50400006803F079FE20006A
:1073100010BD10B504000068002801D003F070FE15
:1073200000232360A360636010BD70B504000D00EE
:107330000068013104F05CFD031E01D0012028C467
:1073400070BD036810B50400002B04D043688B4265
:1073500001D3012010BD2000FFF7E7FF0028F9D07E
:10736000A368002BF5D122681370F2E770B50E0008
:10737000110004001500FFF7E4FF002804D12000ED
:10738000FFF7C7FF200070BD31002068A56004F042
:107390006BFDF7E7002370B504000D000360436048
:1073A0008360994207D0080004F066FD29000200BE
:1073B0002000FFF7DBFF200070BD10B50B000400BC
:1073C000884205D00968002904D09A68FFF7CEFFEB
:1073D000200010BDFFF79DFFFAE7002310B5040061
:1073E000036043608360FFF7E8FF200010BD70B5C5
:1073F00004000D1E09D0080004F03EFD2900020023
:107400002000FFF7B3FF200070BDFFF782FFFAE70F
:1074100010B5002304008AB023606360A3600800F5
:1074200001A900F050F9200001A9FFF7E0FF2000BA
:107430000AB010BD70B50023040015008CB02360A5
:107440006360A360961C081C03F078FC76B203AB63
:10745000320000932B0000F043F801002000FFF7FA
:10746000C6FF20000CB070BDF8B504000E1E02D19E
:1074700000273800F8BD0127002AFAD08368D51804
:107480002900FFF75EFF0028F2D02368A2683100D0
:10749000981804F0E9FCA560EBE710B58A68096864
:1074A0000400FFF7E1FF002802D12000FFF731FFC1
:1074B000200010BD70B504000D1E04D12000FFF7A0
:1074C00028FF200070BD080004F0D6FC290002004F
:1074D0002000FFF7C9FF0028F0D0F2E7FEE7000028
:1074E00030B5040087B00D00064901A804F09CFCEB
:1074F00022002B000A9801A904F096FC0A9807B014
:1075000030BDC046F8F80000FEE70000034B10B5A0
:107510001B68002B00D0984710BDC04658130020B0
:107520000F4A1048110010B50F4B824202D093420F
:1075300009D11300824209D100F0F4F800F0C8F834
:10754000FEE710CB10C18142FBD3F3E7074A8B4221
:10755000F2D00021064B9A42EED202C2FBE7C046AF
:1075600000000020D002002058FD0000D0020020C2
:107570009013002010B500F062F8002801D100F04F
:1075800053F810BD014B18607047C04658130020D7
:10759000014B18687047C0465C130020F7B51348CC
:1075A000012284461249134C8E68636805689B0E5D
:1075B0001340019288686268019F920E3A406746C4
:1075C0003F6893420ED1BD420CD186420AD35B196B
:1075D000FA254868AD00861B07486B437043000DD1
:1075E000C018FEBD3D0013000600E3E75C13002059
:1075F00010E000E000ED00E05555000070B5041EFD
:1076000011D0FFF7CBFFFA260500B60000F016F800
:10761000FFF7C4FF401BB042F8D3FA23013C9B00A4
:10762000ED18002CF4D170BD10B5034A1368013376
:10763000136000F045FC10BD5C1300207047002073
:107640007047F0B50C0017008DB0002920D0931EB4
:10765000222B36D80A2A1ED100281CDA01234042E8
:1076600003AE35000193002817D1AE4215D0019B1F
:107670002200002B02D02D23621C237011002B004E
:10768000B34219D800210B00AE4200D8AB1BD15435
:1076900020000DB0F0BD0023E2E7390000F07AFDD4
:1076A000CAB213005733DBB2092902D813003033B2
:1076B000DBB22B700135D6E7013B18780870013139
:1076C000DEE70024E4E710B5FFF7BBFF10BD70470D
:1076D00010B500F0D7F803F05BFCFFF7F8FF0120CE
:1076E000FFF78CFF094C2000FEF770FD2000FEF72D
:1076F000E5FDFBF735FBFBF733FCFFF79FFF044B82
:10770000002BF8D000E000BFF5E7C0460C0D0020CC
:107710000000000010B503F069FC10BD10B503F0C7
:107720006FFC10BD1E2270B546484749436893431D
:107730001C3A1343436008238C6923438B61434CF9
:10774000434B9C829C8A14439C82DC681442FCD08C
:107750000124404A14701578254203D055786DB243
:10776000002DF8DB01249460547864B2002CFBDB1C
:10777000394C5460547864B2002CFBDB8224E40161
:107780005480547864B2002CFBDB02249C840E34B9
:10779000DD682542FCD0314CDC621024DD682542D6
:1077A000FCD09D8C2E4C2C439C841024DD682542FB
:1077B000FCD002249D8C80262C439C844024DD68D0
:1077C0003542FCD0DD682542F9D01024DD68254221
:1077D000FCD000249460547864B2002CFBDB214C74
:1077E0005460547864B2002CFBDB1C6A1E4D2C40A4
:1077F00080251C621C6AAC431C62032393601B4BF4
:10780000536053785BB2002BFBDB0023FF240B7229
:10781000174A4B728B72CB72164B1A60164B174A73
:107820001B6811689A065B01C90E2340520F1202B1
:107830000B431343124A138580234268134343606A
:1078400070BDC04600400041000400400C0600002E
:1078500000080040000C004001050100B905FF7D53
:10786000040A000000070300FFFCFFFF03060100FD
:10787000006CDC02C80000202460800020608000D2
:1078800000400042FA212E4B10B51868890000F024
:10789000FBFB802301385B0498424FD229492A4AD6
:1078A0004860C020136A00061B021B0A03431362D0
:1078B00000238B6007330B608021136A09061B02CB
:1078C0001B0A0B431362FC22204B196A0A431A62FB
:1078D000FF22196A12020A431A62A022196AD2020E
:1078E0000A431A621A4B1C005A7852B2002AFBDB78
:1078F000184A5A80184B1A00597EC9090129FBD031
:10790000C821890099800521D970537EDB09012B9C
:10791000FBD0C02300205B011361907000F04EF893
:1079200063785BB2002BFBDB0C4B0D4A6380D37991
:10793000DB09012BFBD04123537010BDFEE7C0468D
:10794000C800002010E000E000ED00E0000400406E
:10795000000C00401E40000000400042214000009A
:10796000004800420F4B302218600F490F4B0A2885
:1079700009DD988890439880243A0A605A7ED2099B
:10798000012AFBD07047082806DD98889043202202
:1079900002439A800A22F0E7988802439A800822DC
:1079A000EBE7C046D0000020CC00002000400042A1
:1079B000014B18607047C046D40000201F4900B535
:1079C0000B004A7ED209012AFBD001380A282FD8A1
:1079D00000F046FB1B2E2E2E2E2E062E2E241100DE
:1079E0001A6917490A400F211A615A788A4311000F
:1079F00001220A4310E01A6911490A400F211A6155
:107A00005A788A4311000322F3E71A690C490A40A5
:107A10000F211A615A788A435A7000BD1A690849C1
:107A20000A400F211A615A788A4311000222E0E7C6
:107A3000F022196912050A43F3E7C04600400042EC
:107A4000FFFFFFF010B50400062861D0072861D0C1
:107A5000052800D80E340121200000F0C5F90E2CB5
:107A60000DD12F4B1900DA79D209012AFBD002205F
:107A70001A7882431A70CB79DB09012BFBD0294994
:107A80000B004A7ED209012AFBD018206043264C05
:107A90000A692418207C1F242040A24302430A6163
:107AA0005A7ED209012AFBD0022219780A431A70A1
:107AB0005A7ED209012AFBD00222197B0A431A738B
:107AC0001A7ED207FCD501221A765A7ED209012AE3
:107AD000FBD00222197B0A431A731A7ED207FCD507
